{
  "address": "0xC45f2D3eE118254F53cB32a894a40Cdc7BC29159",
  "abi": [
    {
      "inputs": [],
      "stateMutability": "nonpayable",
      "type": "constructor"
    },
    {
      "inputs": [
        {
          "internalType": "address",
          "name": "sender",
          "type": "address"
        },
        {
          "internalType": "uint256",
          "name": "tokenId",
          "type": "uint256"
        },
        {
          "internalType": "address",
          "name": "owner",
          "type": "address"
        }
      ],
      "name": "ERC721IncorrectOwner",
      "type": "error"
    },
    {
      "inputs": [
        {
          "internalType": "address",
          "name": "operator",
          "type": "address"
        },
        {
          "internalType": "uint256",
          "name": "tokenId",
          "type": "uint256"
        }
      ],
      "name": "ERC721InsufficientApproval",
      "type": "error"
    },
    {
      "inputs": [
        {
          "internalType": "address",
          "name": "approver",
          "type": "address"
        }
      ],
      "name": "ERC721InvalidApprover",
      "type": "error"
    },
    {
      "inputs": [
        {
          "internalType": "address",
          "name": "operator",
          "type": "address"
        }
      ],
      "name": "ERC721InvalidOperator",
      "type": "error"
    },
    {
      "inputs": [
        {
          "internalType": "address",
          "name": "owner",
          "type": "address"
        }
      ],
      "name": "ERC721InvalidOwner",
      "type": "error"
    },
    {
      "inputs": [
        {
          "internalType": "address",
          "name": "receiver",
          "type": "address"
        }
      ],
      "name": "ERC721InvalidReceiver",
      "type": "error"
    },
    {
      "inputs": [
        {
          "internalType": "address",
          "name": "sender",
          "type": "address"
        }
      ],
      "name": "ERC721InvalidSender",
      "type": "error"
    },
    {
      "inputs": [
        {
          "internalType": "uint256",
          "name": "tokenId",
          "type": "uint256"
        }
      ],
      "name": "ERC721NonexistentToken",
      "type": "error"
    },
    {
      "anonymous": false,
      "inputs": [
        {
          "indexed": true,
          "internalType": "address",
          "name": "owner",
          "type": "address"
        },
        {
          "indexed": true,
          "internalType": "address",
          "name": "approved",
          "type": "address"
        },
        {
          "indexed": true,
          "internalType": "uint256",
          "name": "tokenId",
          "type": "uint256"
        }
      ],
      "name": "Approval",
      "type": "event"
    },
    {
      "anonymous": false,
      "inputs": [
        {
          "indexed": true,
          "internalType": "address",
          "name": "owner",
          "type": "address"
        },
        {
          "indexed": true,
          "internalType": "address",
          "name": "operator",
          "type": "address"
        },
        {
          "indexed": false,
          "internalType": "bool",
          "name": "approved",
          "type": "bool"
        }
      ],
      "name": "ApprovalForAll",
      "type": "event"
    },
    {
      "anonymous": false,
      "inputs": [
        {
          "indexed": false,
          "internalType": "uint256",
          "name": "_fromTokenId",
          "type": "uint256"
        },
        {
          "indexed": false,
          "internalType": "uint256",
          "name": "_toTokenId",
          "type": "uint256"
        }
      ],
      "name": "BatchMetadataUpdate",
      "type": "event"
    },
    {
      "anonymous": false,
      "inputs": [
        {
          "indexed": false,
          "internalType": "uint256",
          "name": "_tokenId",
          "type": "uint256"
        }
      ],
      "name": "MetadataUpdate",
      "type": "event"
    },
    {
      "anonymous": false,
      "inputs": [
        {
          "indexed": true,
          "internalType": "address",
          "name": "from",
          "type": "address"
        },
        {
          "indexed": true,
          "internalType": "address",
          "name": "to",
          "type": "address"
        },
        {
          "indexed": true,
          "internalType": "uint256",
          "name": "tokenId",
          "type": "uint256"
        }
      ],
      "name": "Transfer",
      "type": "event"
    },
    {
      "inputs": [],
      "name": "_tokenId",
      "outputs": [
        {
          "internalType": "uint256",
          "name": "",
          "type": "uint256"
        }
      ],
      "stateMutability": "view",
      "type": "function"
    },
    {
      "inputs": [
        {
          "internalType": "address",
          "name": "to",
          "type": "address"
        },
        {
          "internalType": "uint256",
          "name": "tokenId",
          "type": "uint256"
        }
      ],
      "name": "approve",
      "outputs": [],
      "stateMutability": "nonpayable",
      "type": "function"
    },
    {
      "inputs": [
        {
          "internalType": "address",
          "name": "owner",
          "type": "address"
        }
      ],
      "name": "balanceOf",
      "outputs": [
        {
          "internalType": "uint256",
          "name": "",
          "type": "uint256"
        }
      ],
      "stateMutability": "view",
      "type": "function"
    },
    {
      "inputs": [
        {
          "internalType": "uint256",
          "name": "tokenId",
          "type": "uint256"
        }
      ],
      "name": "getApproved",
      "outputs": [
        {
          "internalType": "address",
          "name": "",
          "type": "address"
        }
      ],
      "stateMutability": "view",
      "type": "function"
    },
    {
      "inputs": [
        {
          "internalType": "uint256",
          "name": "tokenId",
          "type": "uint256"
        }
      ],
      "name": "getTokenURL",
      "outputs": [
        {
          "internalType": "string",
          "name": "",
          "type": "string"
        }
      ],
      "stateMutability": "pure",
      "type": "function"
    },
    {
      "inputs": [
        {
          "internalType": "address",
          "name": "owner",
          "type": "address"
        },
        {
          "internalType": "address",
          "name": "operator",
          "type": "address"
        }
      ],
      "name": "isApprovedForAll",
      "outputs": [
        {
          "internalType": "bool",
          "name": "",
          "type": "bool"
        }
      ],
      "stateMutability": "view",
      "type": "function"
    },
    {
      "inputs": [],
      "name": "mint",
      "outputs": [],
      "stateMutability": "nonpayable",
      "type": "function"
    },
    {
      "inputs": [],
      "name": "name",
      "outputs": [
        {
          "internalType": "string",
          "name": "",
          "type": "string"
        }
      ],
      "stateMutability": "view",
      "type": "function"
    },
    {
      "inputs": [
        {
          "internalType": "uint256",
          "name": "tokenId",
          "type": "uint256"
        }
      ],
      "name": "ownerOf",
      "outputs": [
        {
          "internalType": "address",
          "name": "",
          "type": "address"
        }
      ],
      "stateMutability": "view",
      "type": "function"
    },
    {
      "inputs": [
        {
          "internalType": "address",
          "name": "from",
          "type": "address"
        },
        {
          "internalType": "address",
          "name": "to",
          "type": "address"
        },
        {
          "internalType": "uint256",
          "name": "tokenId",
          "type": "uint256"
        }
      ],
      "name": "safeTransferFrom",
      "outputs": [],
      "stateMutability": "nonpayable",
      "type": "function"
    },
    {
      "inputs": [
        {
          "internalType": "address",
          "name": "from",
          "type": "address"
        },
        {
          "internalType": "address",
          "name": "to",
          "type": "address"
        },
        {
          "internalType": "uint256",
          "name": "tokenId",
          "type": "uint256"
        },
        {
          "internalType": "bytes",
          "name": "data",
          "type": "bytes"
        }
      ],
      "name": "safeTransferFrom",
      "outputs": [],
      "stateMutability": "nonpayable",
      "type": "function"
    },
    {
      "inputs": [
        {
          "internalType": "address",
          "name": "operator",
          "type": "address"
        },
        {
          "internalType": "bool",
          "name": "approved",
          "type": "bool"
        }
      ],
      "name": "setApprovalForAll",
      "outputs": [],
      "stateMutability": "nonpayable",
      "type": "function"
    },
    {
      "inputs": [
        {
          "internalType": "bytes4",
          "name": "interfaceId",
          "type": "bytes4"
        }
      ],
      "name": "supportsInterface",
      "outputs": [
        {
          "internalType": "bool",
          "name": "",
          "type": "bool"
        }
      ],
      "stateMutability": "view",
      "type": "function"
    },
    {
      "inputs": [],
      "name": "symbol",
      "outputs": [
        {
          "internalType": "string",
          "name": "",
          "type": "string"
        }
      ],
      "stateMutability": "view",
      "type": "function"
    },
    {
      "inputs": [
        {
          "internalType": "uint256",
          "name": "tokenId",
          "type": "uint256"
        }
      ],
      "name": "tokenURI",
      "outputs": [
        {
          "internalType": "string",
          "name": "",
          "type": "string"
        }
      ],
      "stateMutability": "view",
      "type": "function"
    },
    {
      "inputs": [
        {
          "internalType": "address",
          "name": "from",
          "type": "address"
        },
        {
          "internalType": "address",
          "name": "to",
          "type": "address"
        },
        {
          "internalType": "uint256",
          "name": "tokenId",
          "type": "uint256"
        }
      ],
      "name": "transferFrom",
      "outputs": [],
      "stateMutability": "nonpayable",
      "type": "function"
    }
  ],
  "transactionHash": "0x7cf52237a3ac95de60038244450529d3aca622829a1bae194f78e31338a154a9",
  "args": [],
  "numDeployments": 2,
  "solcInputHash": "5f17ae004d29ab423effbaafaca6f62a",
  "bytecode": "0x60a06040523480156200001157600080fd5b5060405180604001604052806007815260200166151154d513919560ca1b8152506040518060400160405280600381526020016215139560ea1b81525081600090816200005f919062000120565b5060016200006e828262000120565b50503360805250620001ec565b634e487b7160e01b600052604160045260246000fd5b600181811c90821680620000a657607f821691505b602082108103620000c757634e487b7160e01b600052602260045260246000fd5b50919050565b601f8211156200011b57600081815260208120601f850160051c81016020861015620000f65750805b601f850160051c820191505b81811015620001175782815560010162000102565b5050505b505050565b81516001600160401b038111156200013c576200013c6200007b565b62000154816200014d845462000091565b84620000cd565b602080601f8311600181146200018c5760008415620001735750858301515b600019600386901b1c1916600185901b17855562000117565b600085815260208120601f198616915b82811015620001bd578886015182559484019460019091019084016200019c565b5085821015620001dc5787850151600019600388901b60f8161c191681555b5050505050600190811b01905550565b60805161163462000205600039600050506116346000f3fe608060405234801561001057600080fd5b50600436106101005760003560e01c80636352211e11610097578063a22cb46511610066578063a22cb46514610208578063b88d4fde1461021b578063c87b56dd1461022e578063e985e9c51461024157600080fd5b80636352211e146101c757806370a08231146101da5780638665e2ad146101ed57806395d89b411461020057600080fd5b80631249c58b116100d35780631249c58b1461018257806323b872dd1461018a578063248225141461019d57806342842e0e146101b457600080fd5b806301ffc9a71461010557806306fdde031461012d578063081812fc14610142578063095ea7b31461016d575b600080fd5b610118610113366004610f99565b610254565b60405190151581526020015b60405180910390f35b61013561027f565b6040516101249190611006565b610155610150366004611019565b610311565b6040516001600160a01b039091168152602001610124565b61018061017b36600461104e565b61033a565b005b610180610349565b610180610198366004611078565b610382565b6101a660075481565b604051908152602001610124565b6101806101c2366004611078565b610412565b6101556101d5366004611019565b610432565b6101a66101e83660046110b4565b61043d565b6101356101fb366004611019565b610485565b6101356104e3565b6101806102163660046110cf565b6104f2565b610180610229366004611121565b6104fd565b61013561023c366004611019565b610514565b61011861024f3660046111fd565b610625565b60006001600160e01b03198216632483248360e11b1480610279575061027982610653565b92915050565b60606000805461028e90611230565b80601f01602080910402602001604051908101604052809291908181526020018280546102ba90611230565b80156103075780601f106102dc57610100808354040283529160200191610307565b820191906000526020600020905b8154815290600101906020018083116102ea57829003601f168201915b5050505050905090565b600061031c826106a3565b506000828152600460205260409020546001600160a01b0316610279565b6103458282336106dc565b5050565b6007805490600061035983611280565b919050555061036a336007546106e9565b61038060075461037b600754610485565b610703565b565b6001600160a01b0382166103b157604051633250574960e11b8152600060048201526024015b60405180910390fd5b60006103be838333610753565b9050836001600160a01b0316816001600160a01b03161461040c576040516364283d7b60e01b81526001600160a01b03808616600483015260248201849052821660448201526064016103a8565b50505050565b61042d838383604051806020016040528060008152506104fd565b505050565b6000610279826106a3565b60006001600160a01b038216610469576040516322718ad960e21b8152600060048201526024016103a8565b506001600160a01b031660009081526003602052604090205490565b606060006104928361084c565b6040516020016104a29190611299565b60405160208183030381529060405290506104bc816108df565b6040516020016104cc9190611396565b604051602081830303815290604052915050919050565b60606001805461028e90611230565b610345338383610a32565b610508848484610382565b61040c84848484610ad1565b606061051f826106a3565b506000828152600660205260408120805461053990611230565b80601f016020809104026020016040519081016040528092919081815260200182805461056590611230565b80156105b25780601f10610587576101008083540402835291602001916105b2565b820191906000526020600020905b81548152906001019060200180831161059557829003601f168201915b5050505050905060006105d060408051602081019091526000815290565b905080516000036105e2575092915050565b8151156106145780826040516020016105fc9291906113db565b60405160208183030381529060405292505050919050565b61061d84610bfa565b949350505050565b6001600160a01b03918216600090815260056020908152604080832093909416825291909152205460ff1690565b60006001600160e01b031982166380ac58cd60e01b148061068457506001600160e01b03198216635b5e139f60e01b145b8061027957506301ffc9a760e01b6001600160e01b0319831614610279565b6000818152600260205260408120546001600160a01b03168061027957604051637e27328960e01b8152600481018490526024016103a8565b61042d8383836001610c5f565b610345828260405180602001604052806000815250610d65565b600082815260066020526040902061071b8282611458565b506040518281527ff8e1a15aba9398e019f0b49df1a4fde98ee17ae345cb5f6b5e2c27f5033e8ce79060200160405180910390a15050565b6000828152600260205260408120546001600160a01b039081169083161561078057610780818486610d7c565b6001600160a01b038116156107be5761079d600085600080610c5f565b6001600160a01b038116600090815260036020526040902080546000190190555b6001600160a01b038516156107ed576001600160a01b0385166000908152600360205260409020805460010190555b60008481526002602052604080822080546001600160a01b0319166001600160a01b0389811691821790925591518793918516917fddf252ad1be2c89b69c2b068fc378daa952ba7f163c4a11628f55a4df523b3ef91a4949350505050565b6060600061085983610de0565b600101905060008167ffffffffffffffff8111156108795761087961110b565b6040519080825280601f01601f1916602001820160405280156108a3576020820181803683370190505b5090508181016020015b600019016f181899199a1a9b1b9c1cb0b131b232b360811b600a86061a8153600a85049450846108ad57509392505050565b606081516000036108fe57505060408051602081019091526000815290565b60006040518060600160405280604081526020016115bf604091399050600060038451600261092d9190611518565b610937919061152b565b61094290600461154d565b67ffffffffffffffff81111561095a5761095a61110b565b6040519080825280601f01601f191660200182016040528015610984576020820181803683370190505b509050600182016020820185865187015b808210156109f0576003820191508151603f8160121c168501518453600184019350603f81600c1c168501518453600184019350603f8160061c168501518453600184019350603f8116850151845350600183019250610995565b5050600386510660018114610a0c5760028114610a1f57610a27565b603d6001830353603d6002830353610a27565b603d60018303535b509195945050505050565b6001600160a01b038216610a6457604051630b61174360e31b81526001600160a01b03831660048201526024016103a8565b6001600160a01b03838116600081815260056020908152604080832094871680845294825291829020805460ff191686151590811790915591519182527f17307eab39ab6107e8899845ad3d59bd9653f200f220920489ca2b5937696c31910160405180910390a3505050565b6001600160a01b0383163b1561040c57604051630a85bd0160e11b81526001600160a01b0384169063150b7a0290610b13903390889087908790600401611564565b6020604051808303816000875af1925050508015610b4e575060408051601f3d908101601f19168201909252610b4b918101906115a1565b60015b610bb7573d808015610b7c576040519150601f19603f3d011682016040523d82523d6000602084013e610b81565b606091505b508051600003610baf57604051633250574960e11b81526001600160a01b03851660048201526024016103a8565b805181602001fd5b6001600160e01b03198116630a85bd0160e11b14610bf357604051633250574960e11b81526001600160a01b03851660048201526024016103a8565b5050505050565b6060610c05826106a3565b506000610c1d60408051602081019091526000815290565b90506000815111610c3d5760405180602001604052806000815250610c58565b80610c478461084c565b6040516020016104cc9291906113db565b9392505050565b8080610c7357506001600160a01b03821615155b15610d35576000610c83846106a3565b90506001600160a01b03831615801590610caf5750826001600160a01b0316816001600160a01b031614155b8015610cc25750610cc08184610625565b155b15610ceb5760405163a9fbf51f60e01b81526001600160a01b03841660048201526024016103a8565b8115610d335783856001600160a01b0316826001600160a01b03167f8c5be1e5ebec7d5bd14f71427d1e84f3dd0314c0f7b2291e5b200ac8c7c3b92560405160405180910390a45b505b5050600090815260046020526040902080546001600160a01b0319166001600160a01b0392909216919091179055565b610d6f8383610eb8565b61042d6000848484610ad1565b610d87838383610f1d565b61042d576001600160a01b038316610db557604051637e27328960e01b8152600481018290526024016103a8565b60405163177e802f60e01b81526001600160a01b0383166004820152602481018290526044016103a8565b60008072184f03e93ff9f4daa797ed6e38ed64bf6a1f0160401b8310610e1f5772184f03e93ff9f4daa797ed6e38ed64bf6a1f0160401b830492506040015b6d04ee2d6d415b85acef81000000008310610e4b576d04ee2d6d415b85acef8100000000830492506020015b662386f26fc100008310610e6957662386f26fc10000830492506010015b6305f5e1008310610e81576305f5e100830492506008015b6127108310610e9557612710830492506004015b60648310610ea7576064830492506002015b600a83106102795760010192915050565b6001600160a01b038216610ee257604051633250574960e11b8152600060048201526024016103a8565b6000610ef083836000610753565b90506001600160a01b0381161561042d576040516339e3563760e11b8152600060048201526024016103a8565b60006001600160a01b0383161580159061061d5750826001600160a01b0316846001600160a01b03161480610f575750610f578484610625565b8061061d5750506000908152600460205260409020546001600160a01b03908116911614919050565b6001600160e01b031981168114610f9657600080fd5b50565b600060208284031215610fab57600080fd5b8135610c5881610f80565b60005b83811015610fd1578181015183820152602001610fb9565b50506000910152565b60008151808452610ff2816020860160208601610fb6565b601f01601f19169290920160200192915050565b602081526000610c586020830184610fda565b60006020828403121561102b57600080fd5b5035919050565b80356001600160a01b038116811461104957600080fd5b919050565b6000806040838503121561106157600080fd5b61106a83611032565b946020939093013593505050565b60008060006060848603121561108d57600080fd5b61109684611032565b92506110a460208501611032565b9150604084013590509250925092565b6000602082840312156110c657600080fd5b610c5882611032565b600080604083850312156110e257600080fd5b6110eb83611032565b91506020830135801515811461110057600080fd5b809150509250929050565b634e487b7160e01b600052604160045260246000fd5b6000806000806080858703121561113757600080fd5b61114085611032565b935061114e60208601611032565b925060408501359150606085013567ffffffffffffffff8082111561117257600080fd5b818701915087601f83011261118657600080fd5b8135818111156111985761119861110b565b604051601f8201601f19908116603f011681019083821181831017156111c0576111c061110b565b816040528281528a60208487010111156111d957600080fd5b82602086016020830137600060208483010152809550505050505092959194509250565b6000806040838503121561121057600080fd5b61121983611032565b915061122760208401611032565b90509250929050565b600181811c9082168061124457607f821691505b60208210810361126457634e487b7160e01b600052602260045260246000fd5b50919050565b634e487b7160e01b600052601160045260246000fd5b6000600182016112925761129261126a565b5060010190565b607b60f81b815270226e616d65223a22544553544e4654202360781b600182015281516000906112d0816012850160208701610fb6565b61088b60f21b60129390910192830152507f226465736372697074696f6e223a224e4654204f4e434841494e20434f4e54526014820152711050d508129554d5081193d488119553888b60721b60348201527f22696d616765223a2268747470733a2f2f697066732e696f2f697066732f516d60468201527f525956576445516f575968553272703551455855756a5a4345346b797654465560668201526c1ca2a2b2a329bbab9b9bbaac1160991b6086820152607d60f81b6093820152609401919050565b7f646174613a6170706c69636174696f6e2f6a736f6e3b6261736536342c0000008152600082516113ce81601d850160208701610fb6565b91909101601d0192915050565b600083516113ed818460208801610fb6565b835190830190611401818360208801610fb6565b01949350505050565b601f82111561042d57600081815260208120601f850160051c810160208610156114315750805b601f850160051c820191505b818110156114505782815560010161143d565b505050505050565b815167ffffffffffffffff8111156114725761147261110b565b611486816114808454611230565b8461140a565b602080601f8311600181146114bb57600084156114a35750858301515b600019600386901b1c1916600185901b178555611450565b600085815260208120601f198616915b828110156114ea578886015182559484019460019091019084016114cb565b50858210156115085787850151600019600388901b60f8161c191681555b5050505050600190811b01905550565b808201808211156102795761027961126a565b60008261154857634e487b7160e01b600052601260045260246000fd5b500490565b80820281158282048414176102795761027961126a565b6001600160a01b038581168252841660208201526040810183905260806060820181905260009061159790830184610fda565b9695505050505050565b6000602082840312156115b357600080fd5b8151610c5881610f8056fe4142434445464748494a4b4c4d4e4f505152535455565758595a6162636465666768696a6b6c6d6e6f707172737475767778797a303132333435363738392b2fa264697066735822122055254fee9b8942b6ffca02791baa98d9e9e74817245aa4107c47e6c84196fc8564736f6c63430008140033",
  "devdoc": {
    "errors": {
      "ERC721IncorrectOwner(address,uint256,address)": [
        {
          "details": "Indicates an error related to the ownership over a particular token. Used in transfers.",
          "params": {
            "owner": "Address of the current owner of a token.",
            "sender": "Address whose tokens are being transferred.",
            "tokenId": "Identifier number of a token."
          }
        }
      ],
      "ERC721InsufficientApproval(address,uint256)": [
        {
          "details": "Indicates a failure with the `operator`s approval. Used in transfers.",
          "params": {
            "operator": "Address that may be allowed to operate on tokens without being their owner.",
            "tokenId": "Identifier number of a token."
          }
        }
      ],
      "ERC721InvalidApprover(address)": [
        {
          "details": "Indicates a failure with the `approver` of a token to be approved. Used in approvals.",
          "params": {
            "approver": "Address initiating an approval operation."
          }
        }
      ],
      "ERC721InvalidOperator(address)": [
        {
          "details": "Indicates a failure with the `operator` to be approved. Used in approvals.",
          "params": {
            "operator": "Address that may be allowed to operate on tokens without being their owner."
          }
        }
      ],
      "ERC721InvalidOwner(address)": [
        {
          "details": "Indicates that an address can't be an owner. For example, `address(0)` is a forbidden owner in EIP-20. Used in balance queries.",
          "params": {
            "owner": "Address of the current owner of a token."
          }
        }
      ],
      "ERC721InvalidReceiver(address)": [
        {
          "details": "Indicates a failure with the token `receiver`. Used in transfers.",
          "params": {
            "receiver": "Address to which tokens are being transferred."
          }
        }
      ],
      "ERC721InvalidSender(address)": [
        {
          "details": "Indicates a failure with the token `sender`. Used in transfers.",
          "params": {
            "sender": "Address whose tokens are being transferred."
          }
        }
      ],
      "ERC721NonexistentToken(uint256)": [
        {
          "details": "Indicates a `tokenId` whose `owner` is the zero address.",
          "params": {
            "tokenId": "Identifier number of a token."
          }
        }
      ]
    },
    "events": {
      "Approval(address,address,uint256)": {
        "details": "Emitted when `owner` enables `approved` to manage the `tokenId` token."
      },
      "ApprovalForAll(address,address,bool)": {
        "details": "Emitted when `owner` enables or disables (`approved`) `operator` to manage all of its assets."
      },
      "BatchMetadataUpdate(uint256,uint256)": {
        "details": "This event emits when the metadata of a range of tokens is changed. So that the third-party platforms such as NFT market could timely update the images and related attributes of the NFTs."
      },
      "MetadataUpdate(uint256)": {
        "details": "This event emits when the metadata of a token is changed. So that the third-party platforms such as NFT market could timely update the images and related attributes of the NFT."
      },
      "Transfer(address,address,uint256)": {
        "details": "Emitted when `tokenId` token is transferred from `from` to `to`."
      }
    },
    "kind": "dev",
    "methods": {
      "approve(address,uint256)": {
        "details": "See {IERC721-approve}."
      },
      "balanceOf(address)": {
        "details": "See {IERC721-balanceOf}."
      },
      "getApproved(uint256)": {
        "details": "See {IERC721-getApproved}."
      },
      "isApprovedForAll(address,address)": {
        "details": "See {IERC721-isApprovedForAll}."
      },
      "name()": {
        "details": "See {IERC721Metadata-name}."
      },
      "ownerOf(uint256)": {
        "details": "See {IERC721-ownerOf}."
      },
      "safeTransferFrom(address,address,uint256)": {
        "details": "See {IERC721-safeTransferFrom}."
      },
      "safeTransferFrom(address,address,uint256,bytes)": {
        "details": "See {IERC721-safeTransferFrom}."
      },
      "setApprovalForAll(address,bool)": {
        "details": "See {IERC721-setApprovalForAll}."
      },
      "supportsInterface(bytes4)": {
        "details": "See {IERC165-supportsInterface}"
      },
      "symbol()": {
        "details": "See {IERC721Metadata-symbol}."
      },
      "tokenURI(uint256)": {
        "details": "See {IERC721Metadata-tokenURI}."
      },
      "transferFrom(address,address,uint256)": {
        "details": "See {IERC721-transferFrom}."
      }
    },
    "version": 1
  },
  "userdoc": {
    "kind": "user",
    "methods": {},
    "version": 1
  },
  "storageLayout": {
    "storage": [
      {
        "astId": 201,
        "contract": "contracts/TESTNFT.sol:TESTNFT",
        "label": "_name",
        "offset": 0,
        "slot": "0",
        "type": "t_string_storage"
      },
      {
        "astId": 203,
        "contract": "contracts/TESTNFT.sol:TESTNFT",
        "label": "_symbol",
        "offset": 0,
        "slot": "1",
        "type": "t_string_storage"
      },
      {
        "astId": 207,
        "contract": "contracts/TESTNFT.sol:TESTNFT",
        "label": "_owners",
        "offset": 0,
        "slot": "2",
        "type": "t_mapping(t_uint256,t_address)"
      },
      {
        "astId": 211,
        "contract": "contracts/TESTNFT.sol:TESTNFT",
        "label": "_balances",
        "offset": 0,
        "slot": "3",
        "type": "t_mapping(t_address,t_uint256)"
      },
      {
        "astId": 215,
        "contract": "contracts/TESTNFT.sol:TESTNFT",
        "label": "_tokenApprovals",
        "offset": 0,
        "slot": "4",
        "type": "t_mapping(t_uint256,t_address)"
      },
      {
        "astId": 221,
        "contract": "contracts/TESTNFT.sol:TESTNFT",
        "label": "_operatorApprovals",
        "offset": 0,
        "slot": "5",
        "type": "t_mapping(t_address,t_mapping(t_address,t_bool))"
      },
      {
        "astId": 1340,
        "contract": "contracts/TESTNFT.sol:TESTNFT",
        "label": "_tokenURIs",
        "offset": 0,
        "slot": "6",
        "type": "t_mapping(t_uint256,t_string_storage)"
      },
      {
        "astId": 2999,
        "contract": "contracts/TESTNFT.sol:TESTNFT",
        "label": "_tokenId",
        "offset": 0,
        "slot": "7",
        "type": "t_uint256"
      }
    ],
    "types": {
      "t_address": {
        "encoding": "inplace",
        "label": "address",
        "numberOfBytes": "20"
      },
      "t_bool": {
        "encoding": "inplace",
        "label": "bool",
        "numberOfBytes": "1"
      },
      "t_mapping(t_address,t_bool)": {
        "encoding": "mapping",
        "key": "t_address",
        "label": "mapping(address => bool)",
        "numberOfBytes": "32",
        "value": "t_bool"
      },
      "t_mapping(t_address,t_mapping(t_address,t_bool))": {
        "encoding": "mapping",
        "key": "t_address",
        "label": "mapping(address => mapping(address => bool))",
        "numberOfBytes": "32",
        "value": "t_mapping(t_address,t_bool)"
      },
      "t_mapping(t_address,t_uint256)": {
        "encoding": "mapping",
        "key": "t_address",
        "label": "mapping(address => uint256)",
        "numberOfBytes": "32",
        "value": "t_uint256"
      },
      "t_mapping(t_uint256,t_address)": {
        "encoding": "mapping",
        "key": "t_uint256",
        "label": "mapping(uint256 => address)",
        "numberOfBytes": "32",
        "value": "t_address"
      },
      "t_mapping(t_uint256,t_string_storage)": {
        "encoding": "mapping",
        "key": "t_uint256",
        "label": "mapping(uint256 => string)",
        "numberOfBytes": "32",
        "value": "t_string_storage"
      },
      "t_string_storage": {
        "encoding": "bytes",
        "label": "string",
        "numberOfBytes": "32"
      },
      "t_uint256": {
        "encoding": "inplace",
        "label": "uint256",
        "numberOfBytes": "32"
      }
    }
  }
}